:020000040800F2
:1000000000500020FD0A00084D0B00084D0B0008B1
:100010004D0B00084D0B00084D0B000800000000C0
:100020000000000000000000000000004D0B000870
:100030004D0B0008000000004D0B0008610800088F
:100040004D0B00084D0B00084D0B00084D0B000830
:100050004D0B00084D0B00084D0B00084D0B000820
:100060004D0B00084D0B00084D0B00084D0B000810
:100070004D0B00084D0B00084D0B00084D0B000800
:100080004D0B00084D0B00084D0B00084D0B0008F0
:100090004D0B00084D0B00084D0B00084D0B0008E0
:1000A0004D0B00084D0B00084D0B00084D0B0008D0
:1000B0004D0B00084D0B00084D0B00084D0B0008C0
:1000C0004D0B00084D0B00084D0B00084D0B0008B0
:1000D0004D0B00084D0B00084D0B00084D0B0008A0
:1000E0004D0B00084D0B0008000000004D0B0008F0
:1000F0004D0B00084D0B00084D0B00084D0B000880
:100100004D0B00084D0B00084D0B00084D0B00086F
:100110004D0B00084D0B00084D0B00084D0B00085F
:100120004D0B00084D0B00084D0B00084D0B00084F
:1001300010B5054C237833B9044B13B10448AFF321
:1001400000800123237010BD680000200000000023
:100150002814000808B5034B1BB103490348AFF34B
:10016000008008BD000000006C000020281400087A
:1001700080B582B000AF0023FB7108E00F4800F0AB
:10018000AFFB0121642000F005F90346FB71FB7908
:10019000002BF3D00023FB7108E0094800F0A0FB1E
:1001A0000B21962000F0F6F80346FB71FB79002B3B
:1001B000F3D000BF00BF0837BD4680BD4014000823
:1001C0004814000880B5A0B004AF786039600023FF
:1001D00087F86F300023BB6007F10C036022002119
:1001E000184600F0DFFC07F10800114B03933B6851
:1001F00002930F4B01930E4B00937B680C4A0D4901
:1002000000F0D8FC0BE007F10803184600F068FB8B
:100210000221094800F0BEF8034687F86F3097F8CE
:100220006F30002BEFD000BF00BF7037BD4680BDE0
:1002300000000020581400088023430080B5A0B0BF
:1002400004AF7860002387F86F300023BB6007F1AC
:100250000C0360220021184600F0A4FC07F10800FE
:10026000104B02937B6801930E4B00930D4B0D4A8C
:100270000D4900F09FFC0BE007F10803184600F061
:100280002FFB0321094800F085F8034687F86F30FB
:1002900097F86F30002BEFD000BF00BF7037BD461E
:1002A00080BD00BF0000002078140008E0C81000E6
:1002B00080B5A2B002AFB9607A601A460346FB73FC
:1002C0001346BB73002387F87B3000237B6107F163
:1002D000180360220021184600F064FCFA7B07F145
:1002E00014032849184600F065FC07F1140318466A
:1002F00000F0F6FA0421C82000F04CF8034687F815
:100300007B3097F87B30002B03D11F48FFF796FF17
:10031000D8E70023FB6708E007F11402FB6F1344E2
:1003200000221A70FB6F0133FB67FB6F612BF3DD5B
:10033000BB7B07F11400D7F8882001920093BB68BB
:100340007A68124900F036FC002387F87B3007F109
:100350001403184600F0C4FA2C210D4800F01AF8D6
:10036000034687F87B3097F87B30002B03D1064893
:10037000FFF764FFA6E797F87B3018468037BD4645
:1003800080BD00BF98140008A8140008B814000825
:10039000A0BB0D0080B584B000AF78600B46FB7049
:1003A0000023FB8100237B7300233B730BE0786801
:1003B00000F0BCFA03467B73FB8950497A7BCA5430
:1003C000FB890133FB817B7BFF2BF0D10023FB8179
:1003D0001DE0FB89494AD35CDBB24F2B09D1FB8975
:1003E0000133464AD35CDBB24B2B02D1FB893B7312
:1003F00010E0FB89414AD35CDBB23E2B02D15F2384
:100400003B7307E000233B73FB890133FB81FB89CE
:10041000312BDED9FB782C2B5AD10023FB8152E003
:10042000FB89364AD35CDBB2532B47D1FB890133BE
:10043000324AD35CDBB2652B40D1FB8902332F4AB1
:10044000D35CDBB26E2B39D1FB8903332B4AD35CEF
:10045000DBB2742B32D1FB890B33284AD35CDBB27D
:100460003A2B28D1FB890C33244AD35CDBB2302BE6
:100470001ED1FB890D33214AD35CDBB2302B17D15F
:10048000FB8913331D4AD35CDBB2312B10D1FB89BE
:1004900014331A4AD35CDBB2462B09D1FB891533DE
:1004A000164AD35CDBB2462B02D132233B730FE0FA
:1004B0005F233B730CE02C233B7309E000233B7369
:1004C000FB890133FB81FB8940F2E6329342A7D9D5
:1004D0000023BB6007E0094ABB68134400221A707E
:1004E000BB680133BB60BB6840F2E6329342F2DD89
:1004F0003B7B18461037BD4680BD00BF84000020FE
:1005000080B483B000AF0346FB710B46BB7113464A
:100510007B71FB79022B7AD0022B00F3B180002B88
:1005200002D0012B3AD0ABE0BB79072B17D85A4B3E
:100530001B68BA7992000F2101FA02F2D2431146E8
:10054000554A0B401360544B1B687979BA79920075
:1005500001FA02F21146504A0B43136092E0BB7954
:100560000F2B00F28F80BB79083BBB714B4B1B6894
:10057000BA7992000F2101FA02F2D2431146474A9A
:100580000B401360454B1B687979BA79920001FAE8
:1005900002F21146414A0B43136073E0BB79072B0B
:1005A00017D83F4B1B68BA7992000F2101FA02F26B
:1005B000D24311463A4A0B401360394B1B68797994
:1005C000BA79920001FA02F21146354A0B431360E0
:1005D0005AE0BB790F2B57D8BB79083BBB71314B25
:1005E0001B68BA7992000F2101FA02F2D243114638
:1005F0002C4A0B4013602B4B1B687979BA79920017
:1006000001FA02F21146274A0B4313603CE0BB7922
:10061000072B17D8244B1B68BA7992000F2101FAD7
:1006200002F2D2431146204A0B4013601E4B1B6856
:100630007979BA79920001FA02F211461A4A0B430B
:10064000136023E0BB790F2B20D8BB79083BBB712B
:10065000164B1B68BA7992000F2101FA02F2D243BD
:100660001146124A0B401360104B1B687979BA7916
:10067000920001FA02F211460C4A0B43136005E0A6
:1006800000BF04E000BF02E000BF00E000BF00BF09
:100690000C37BD4680BC704700080140040801408B
:1006A000000C0140040C0140001001400410014006
:1006B00080B483B000AF0346FB710B46BB71134699
:1006C0007B71FB79022B40D0022B5BDC002B02D02C
:1006D000012B1DD056E07B79012B0AD12F4B1B68D3
:1006E000BA79012101FA02F211462C4A0B43136038
:1006F0004AE07B79002B47D1284B1B68BA7901214E
:1007000001FA02F2D2431146244A0B4013603BE047
:100710007B79012B0AD1224B1B68BA79012101FA9E
:1007200002F211461E4A0B4313602FE07B79002B27
:100730002CD11B4B1B68BA79012101FA02F2D2437A
:100740001146174A0B40136020E07B79012B0AD138
:10075000144B1B68BA79012101FA02F21146114AC1
:100760000B43136014E07B79002B11D10D4B1B68F8
:10077000BA79012101FA02F2D2431146094A0B402B
:10078000136005E000BF04E000BF02E000BF00E02E
:1007900000BF00BF0C37BD4680BC70470C0801404D
:1007A0000C0C01400C10014080B400AF094B4FF419
:1007B00080321A60084B01221A6000BF054B1B688B
:1007C0005B0C03F00103002BF8D000BF00BFBD4657
:1007D00080BC7047001002400410024080B483B017
:1007E00000AF03460A46FB711346BB71BB791F2B52
:1007F0002AD8FB79022B1CD0022B25DC002B02D03F
:10080000012B0BD020E0134B1B68BA79012101FAB0
:1008100002F211460F4A0B43136015E00E4B1B68A2
:10082000BA79012101FA02F211460B4A0B43136017
:100830000AE00A4B1B68BA79012101FA02F211465B
:10084000064A0B43136000BF00BF0C37BD4680BC97
:10085000704700BF141002401C10024018100240E4
:1008600080B500AF0B4B1B78002B0ED10A4B1B68D9
:10087000094A23F002031360074B00221A60064B5B
:1008800000225A60044B00229A60044B1B68984770
:1008900000BF80BD7004002010E000E06C04002068
:1008A00080B400AF0D4B45229A600C4BDB680B4ABD
:1008B00043F00803D360094BDB68084A43F00403A4
:1008C000D360064BDB68054A43F40053D360034B07
:1008D00000221A6000BFBD4680BC7047003801404E
:1008E00080B485B000AF78600023FB7310E0FB7B21
:1008F0007A6813441A780C4B5A6000BF0A4B1B6885
:100900009B0903F00103002BF8D0FB7B0133FB7341
:10091000FB7B7A6813441B78002BE8D100BF00BF33
:100920001437BD4680BC70470038014080B485B0A4
:1009300000AF78600023FB600023FB7209E0FB68D6
:100940000133FB60FA687B689A4202D1FF23FB7295
:1009500006E00A4B1B685B0903F00103002BEED095
:10096000FB7A002B03D1054B5B68DBB200E0FB7A1E
:1009700018461437BD4680BC704700BF00380140A0
:1009800080B584B002AFFFF70FFF02210220FFF70E
:1009900025FF0E210220FFF721FF0B220921002055
:1009A000FFF7AEFD04220A210020FFF7A9FD022275
:1009B00000210020FFF7A4FD022201210020FFF703
:1009C0009FFDFFF76DFFFFF7D3FB2B492B48FFF788
:1009D000F9FB2B48FFF732FC2A4B009302232A4AEB
:1009E0002A495D20FFF764FC0346FB71FB79FA2B73
:1009F000FCD0FB795F2B17D1012201210020FFF7EA
:100A000057FE002200210020FFF752FE1C48FFF78E
:100A100015FC1C4B009302231B4A1C495D20FFF769
:100A200047FC0346FB71E1E7FB79322B0CD1002236
:100A300001210020FFF73CFE012200210020FFF7EA
:100A400037FEFA23FB71D1E7002200210020FFF7D7
:100A50002FFE002201210020FFF72AFE0848FFF7A1
:100A6000EDFB084B00930223074A08495D20FFF77E
:100A70001FFC0346FB71B9E71C1500082815000888
:100A800034150008681500084415000850150008C2
:100A900080B586B000AF7860144A154BD31A7B61DD
:100AA0007B693B61134B1B68002B02D1114B124A2F
:100AB0001A60104B1A687B6813443A699A4207D24D
:100AC00000F046F803460C221A604FF0FF3309E0AD
:100AD000084B1B68FB60074B1A687B681344054A88
:100AE0001360FB6818461837BD4680BD00500020D3
:100AF0000004000074040020900400200D48854686
:100B0000AFF300800C480D490D4A002302E0D45891
:100B1000C4500433C4188C42F9D30A4A0A4C002347
:100B200001E013600432A242FBD300F017F8FFF794
:100B300027FFFEE700500020000000206800002092
:100B4000A81500086800002090040020FEE70000BF
:100B5000014B1868704700BF0400002070B50026E4
:100B60000C4D0D4C641BA410A64209D100F05CFC96
:100B700000260A4D0A4C641BA410A64205D170BD84
:100B800055F8043B98470136EEE755F8043B984783
:100B90000136F2E7A0150008A0150008A01500080E
:100BA000A415000803460244934200D1704703F89D
:100BB000011BF9E70EB46FF0004100B59CB01DAB0E
:100BC00002900690079104910848094953F8042BB4
:100BD0000591006802A9019300F068F80022029BC9
:100BE0001A701CB05DF804EB03B0704704000020DD
:100BF0000802FFFF2DE9F0478E6882469E420C46B0
:100C000090461F4638D88A8912F4906F32D02568F2
:100C100009690133A5EB010965694B4405EB4505FD
:100C200005EBD5756D109D4238BF1D46530531D576
:100C3000294600F053FB064650B90C234FF0FF3015
:100C4000CAF80030A38943F04003A381BDE8F087D0
:100C50004A46216900F0CEFAA38923F4906343F059
:100C60008003A38126614E4426603E466561A5EB64
:100C70000905A560BE4200D93E463246414620687D
:100C800000F0C6FAA36822689B1B32440020A360D0
:100C90002260DBE72A4600F07BFB06460028E1D114
:100CA0005046216900F0CEFAC7E700002DE9F04F69
:100CB00098468B8907461B060D4614469DB00ED5F7
:100CC0000B6963B9402100F009FB2860286120B955
:100CD0000C233B604FF0FF30D1E040236B610023D9
:100CE000099320238DF8293030234FF00109CDF8E6
:100CF0000C80DFF8A4818DF82A3023469A4613F839
:100D0000012B0AB1252AF9D1BAEB040B0BD05B46B3
:100D1000224629463846FFF76DFF013000F0AA80D1
:100D2000099A5A4409929AF80030002B00F0A280E8
:100D300000234FF0FF32CDE905230AF1010A0493A5
:100D400007938DF853301A935446052214F8011B6B
:100D5000514800F041FA049AD8B9D00644BF202384
:100D60008DF85330110744BF2B238DF853309AF878
:100D700000302A2B15D0544600204FF00A0C079A59
:100D8000214611F8013B303B092B4ED9B0B10792F7
:100D900014E0A0EB080309FA03F31343A2460493FB
:100DA000D2E7039B191D1B680391002BBBBF5B425D
:100DB00042F0020207930793B8BF049223782E2BC8
:100DC0000CD163782A2B35D1039B02341A1D1B6882
:100DD0000392002BB8BF4FF0FF330593DFF8C8A094
:100DE00003225046217800F0F7F940B14023A0EBF0
:100DF0000A0003FA00F0049B01340343049314F83F
:100E0000011B062225488DF8281000F0E5F900287E
:100E100038D0234B1BBB039B073323F00703083356
:100E20000393099B3344099367E70C4601200CFBAD
:100E30000232A5E700234FF00A0C1946013405934E
:100E4000204610F8012B303A092A03D9002BC5D0CF
:100E50000591C3E7044601230CFB0121F0E703AB36
:100E600000932A4638460F4B04A9AFF30080421C7A
:100E70000646D6D1AB895B063FF52CAF09981DB06D
:100E8000BDE8F08F03AB00932A463846054B04A912
:100E900000F07CF8EBE700BF6B1500087515000843
:100EA00000000000F50B0008711500082DE9F0475F
:100EB000164699468A680B6907469342B8BF13469F
:100EC000336091F843200C46DDF820800AB10133ED
:100ED00033602368990642BF336802333360256864
:100EE00015F0060506D104F1190AE36832689B1A69
:100EF000AB4228DC94F84320131E226818BF01235C
:100F000092062DD44946384604F14302C0470130C9
:100F100020D02368E56803F00603042B18BF0025E2
:100F200032684FF00006A36808BFAD1A226908BFF7
:100F300025EAE5759342C4BF9B1AED181A34B542F1
:100F40001AD1002008E00123524649463846C047DE
:100F5000013003D14FF0FF30BDE8F0870135C4E721
:100F60003020E11881F843005A1C94F845102244BF
:100F7000023382F84310C5E701232246494638462A
:100F8000C0470130E6D00136D9E700002DE9FF4720
:100F90000C46277E9146782F80469A460C9904F19C
:100FA000430207D8622F0AD8002F00F0D980582FAB
:100FB00000F0A48004F1420684F842703AE0A7F100
:100FC0006303152BF6D801A050F823F02510000874
:100FD00039100008B50F0008B50F0008B50F00085C
:100FE000B50F000839100008B50F0008B50F00084C
:100FF000B50F0008B50F0008471100086910000878
:1010000029110008B50F0008B50F00086911000884
:10101000B50F000869100008B50F0008B50F0008EB
:10102000311100080B6804F142061A1D1B680A60A2
:1010300084F842300123A4E0256808682E0600F1F8
:1010400004030AD505680B60002D03DA2D236D42D9
:1010500084F843300A235E4819E015F0400F056814
:101060000B6018BF2DB2EFE70B682568181D0860EC
:10107000280601D51D6802E06906FBD51D886F2F83
:101080000CBF08230A235248002184F843106668E5
:10109000002EA8BF2168A660A4BF21F00401216032
:1010A0000DB9002E4DD01646B5FBF3F103FB1157D9
:1010B000C75D06F8017D2F46BB420D46F4D9082BCB
:1010C0000BD12368DF0708D5236961689942DEBF29
:1010D000302306F8013C06F1FF36921B22614B4695
:1010E00021464046CDF800A003AAFFF7DFFE0130FD
:1010F0004CD14FF0FF3004B0BDE8F087344884F89D
:1011000045700E68236856F8045B1F060E6014D500
:10111000D90744BF43F0200323601DB9236823F09F
:10112000200323601023AFE7236843F020032360EC
:101130007823284884F84530E3E75E0648BFADB21F
:10114000E6E71646BBE70B6826681D1D60690D6063
:1011500035061B6801D5186002E07106FBD51880C2
:10116000002316462361BAE70B681A1D0A601E6841
:1011700000213046626800F02FF808B1801B6060E3
:1011800063682361002384F84330A8E73246494668
:1011900040462369D0470130ABD023689B0713D466
:1011A000E068039B9842B8BF1846A4E70123324683
:1011B00049464046D04701309BD00135E36803994A
:1011C0005B1AAB42F2DCEBE7002504F11906F5E708
:1011D0007C1500088D150008034610B5C9B20244FD
:1011E0009342184601D1002003E0047801338C4279
:1011F000F6D110BD0A44914200F1FF3300D170478F
:1012000010B511F8014B914203F8014FF9D110BD0F
:10121000884210B501EB020402D98442234607D864
:10122000431EA14208D011F8012B03F8012FF8E763
:10123000014602448A4200D110BD13F8014D02F864
:10124000014DF7E738B50546002943D051F8043C75
:101250000C1F002BB8BFE41800F0D0F81E4A13682A
:10126000104633B9636014602846BDE8384000F08A
:10127000CBB8A3420AD921686218934201BF1A6809
:101280005B685218226063600460EDE71A465B6891
:101290000BB1A342FAD911685018A0420BD12068B3
:1012A0000144501883421160DED118685B68014424
:1012B00011605360D8E702D90C232B60D4E7206873
:1012C00021188B4201BF19685B68091821606360AF
:1012D0005460C9E738BD00BF78040020F8B5CD1CC4
:1012E00025F0030508350C2D38BF0C25002D0646CA
:1012F00001DBA94203D90C2333600020F8BD00F0C4
:101300007DF821490A6814469CB9204F3B6823B9EF
:101310002146304600F062F838602946304600F039
:101320005DF8431C23D10C233046336000F06CF889
:10133000E3E723685B1B17D40B2B03D923601C4402
:10134000256004E06368A2420CBF0B605360304626
:1013500000F05AF804F10B00231D20F00700C21A18
:10136000CCD01B1AA350C9E722466468CCE7C41C42
:1013700024F00304A042E3D0211A304600F02EF8F6
:101380000130DDD1CFE700BF780400207C040020CD
:10139000F8B5074614460E4621B91146BDE8F84097
:1013A000FFF79CBF22B9FFF74DFF25462846F8BD41
:1013B00000F030F8A0420FD221463846FFF78EFFEA
:1013C00005460028F2D031462246FFF713FF31468A
:1013D0003846FFF737FFE9E73546E7E738B500233A
:1013E000054D044608462B60FFF752FB431C02D113
:1013F0002B6803B1236038BD80040020014800F051
:1014000011B800BF88040020014800F00CB800BFEC
:101410008804002051F8043C181F002BBCBF0B5857
:10142000C018704770477047F8B500BFF8BC08BCDB
:101430009E467047F8B500BFF8BC08BC9E46704792
:10144000415445300D0A000041542B43574D4F4441
:10145000453D310D0A00000041542B43574A41508D
:101460005F4355523D2573257325732C25732573D2
:1014700025730D0A0000000041542B43495053547A
:101480004152543D257354435025732C25732573C5
:1014900025732C38300D0A0041542B4349505345D5
:1014A0004E443D25640D0A0036392E3139372E3130
:1014B00034332E3134000000504F5354202F257305
:1014C00020485454502F312E310D0A486F73743A0E
:1014D0002025730D0A436F6E74656E742D4C656E16
:1014E0006774683A2025640D0A0D0A25730D0A41B8
:1014F000542B434950434C4F53450D0A0000000004
:1015000047455420687474703A2F2F25732F7374D5
:10151000617475732E7478740D0A0D006B366D321C
:10152000313732330000000057455F3941324239CC
:101530003300000036392E3139372E3134332E3115
:10154000340000006861616161322E7068700000D3
:1015500061686D656461726D2E6672656576617233
:101560002E636F6D000000006F6B00232D302B2069
:1015700000686C4C00656667454647003031323381
:1015800034353637383941424344454600303132EC
:10159000333435363738396162636465660000007C
:0415A00055010008E9
:0415A4003101000809
:1015A80022000000080000200000000000000000E9
:1015B8000000000000000000000000000000000023
:1015C8000000000000000000000000000000000013
:1015D8000000000000000000000000000000000003
:1015E80000000000000000000000000000000000F3
:1015F80000000000000000000000000000000000E3
:081608000000000000000000DA
:0400000508000AFDE8
:00000001FF
